:020000040800F2
:1000000078060020290200083102000833020008A7
:10001000350200083702000839020008000000001D
:100020000000000000000000000000003B0200088B
:100030003D020008000000003F0200080908000817
:10004000430200084302000843020008430200087C
:1000500043020008430200085D0400084302000850
:10006000430200084302000843020008430200085C
:10007000430200084302000843020008430200084C
:10008000430200084302000843020008430200083C
:10009000430200084302000843020008430200082C
:1000A000430200084302000843020008430200081C
:1000B0008108000843020008A50800084302000860
:1000C00043020008430200084302000843020008FC
:1000D00043020008430200084302000843020008EC
:1000E00043020008430200084302000843020008DC
:1000F00043020008430200084302000843020008CC
:1001000043020008430200084302000843020008BB
:1001100043020008430200084302000843020008AB
:10012000430200084302000843020008430200089B
:10013000430200084302000843020008430200088B
:10014000430200084302000843020008430200087B
:10015000430200084302000843020008430200086B
:10016000430200084302000843020008430200085B
:10017000430200084302000843020008430200084B
:10018000430200084302000800F002F800F03CF8C7
:100190000AA090E8000C82448344AAF10107DA45E2
:1001A00001D100F031F8AFF2090EBAE80F0013F0F8
:1001B000010F18BFFB1A43F001031847DC0A0000C7
:1001C000FC0A0000103A24BF78C878C1FAD8520758
:1001D00024BF30C830C144BF04680C6070470000C1
:1001E0000023002400250026103A28BF78C1FBD840
:1001F000520728BF30C148BF0B6070471FB500F0E1
:1002000045FD1FBD10B510BD00F031F81146FFF7D8
:10021000F5FF00F025FC00F04FF803B4FFF7F2FF04
:1002200003BC00F057F80000094880470948004720
:10023000FEE7FEE7FEE7FEE7FEE7FEE7FEE7FEE796
:10024000FEE7FEE704480549054A064B70470000F3
:1002500019080008890100087800002078060020AD
:10026000780200207802002070477047704775467A
:1002700000F02CF8AE4605006946534620F0070012
:10028000854618B020B5FFF7DDFFBDE820404FF0F0
:1002900000064FF000074FF000084FF0000B21F070
:1002A0000701AC46ACE8C009ACE8C009ACE8C0093D
:1002B000ACE8C0098D46704710B50446AFF3008026
:1002C0002046BDE81040FFF7A8BF00000048704777
:1002D0001800002001491820ABBEFEE726000200EE
:1002E000704721B1826842F00102826003E08268B7
:1002F00022F00102826070470021084A1168084A12
:100300001140D0E900231A4383681A43C3681A4393
:100310001143044AC2F8041370470000042301404B
:10032000E030FCFF002001400146C86C80B27047FD
:100330000246002013680B400BB1012000E00020B2
:100340007047000030B50246002000235068104C72
:1003500020400D790C6844EA0524204350609068E1
:100360000C4C2040D1E903542C438D682C434D792B
:1003700044EA450420439060D06A20F470000C7D6C
:10038000641EE4B2234340EA0350D06230BD000053
:10039000FFFEFFFCFDF7FFC0F0B504460D46002050
:1003A0000021092D11DDE068A5F10A0606EB4607DC
:1003B000072606FA07F18843A5F10A0606EB46066A
:1003C00003FA06F10843E0600CE0206905EB4507FD
:1003D000072606FA07F1884305EB450603FA06F1FE
:1003E00008432061072A0FDA606B561E06EB86076A
:1003F0001F2606FA07F18843561E06EB860605FA05
:1004000006F10843606322E00D2A0FDA206BD61F45
:1004100006EB86071F2606FA07F18843D61F06EB70
:10042000860605FA06F10843206310E0E06AA2F1AF
:100430000D0606EB86071F2606FA07F18843A2F190
:100440000D0606EB860605FA06F10843E062F0BDEC
:10045000816841F0804181607047000010B5012043
:1004600000F012F838B14FF40061034800F0AEF824
:10047000012000F003F810BD000C024001490860A3
:1004800070470000143C014001460020034A1268F6
:100490000A400AB1012000E000207047143C0140EE
:1004A000002123498279002A3AD00A46126803685B
:1004B0009A430B461A600A1D126803689A430B1D83
:1004C0001A60027911440A6803681A430A60184ADC
:1004D0000832126803689A43154B08331A601A1DD4
:1004E000126803689A43124B0C331A604279102A3F
:1004F0000ED11A1F126803681A430D4B08331A6095
:100500001A1D126803681A43094B0C331A600DE078
:100510000749427911440A6803681A430A6005E0F2
:10052000027911440A6803689A430A607047000020
:10053000003C0140F0B50A4600210023002400BF22
:100540003DE0012505FA01F3156805EA03049C4224
:1005500034D105684F000326BE40B54305601579C8
:100560004E00B5400668354305601579012D02D06F
:100570001579022D16D185684F000326BE40B5437C
:10058000856055794E00B54086683543856045687D
:1005900001268E40B5434560456896798E40B6B2D7
:1005A00035434560C5684F000326BE40B543C5606E
:1005B000D5794E00B540C6683543C560491C102941
:1005C000BFD3F0BD418370470183704742694A4001
:1005D0004261704770B5002100230F22C4781CB31C
:1005E000174C246804F4E064C4F5E064C4F3072104
:1005F000C1F10404E3B20A4144789C40E1B284783A
:10060000144021430C07210E0E4C057861550478E7
:1006100004F01F050124AC4005786D11AD0005F113
:10062000E025C5F8004109E0047804F01F05012425
:10063000AC40054D0678761145F8264070BD0000A7
:100640000CED00E000E400E080E100E029B1064AA2
:1006500012680243044B1A6004E0034A12688243A2
:10066000014B1A60704700003038024029B1064A39
:1006700012680243044B1A6004E0034A1268824382
:10068000014B1A60704700004038024029B1064A09
:1006900012680243044B1A6004E0034A1268824362
:1006A000014B1A60704700004438024010B5032324
:1006B000012211460848FFF76FFE0748FFF7C8FE02
:1006C00000BF02210448FFF733FE0028F9D002489A
:1006D000FFF72AFE10BD00000020014030B50022C7
:1006E0008B071C0F0F2303FA04F20B4B8C1053F8EB
:1006F00024309343084C8D1044F8253023468C1049
:1007000053F824308C07240F00FA04F42343024CDE
:100710008D1044F8253030BD083801400CB500205C
:10072000019000903448006840F4803032490860FD
:1007300000BF3148006800F4003000900198401C70
:100740000190009818B90198B0F5A04FF1D12A484E
:10075000006800F4003010B10120009001E000209A
:1007600000900098012846D123484030006840F0AE
:1007700080502149403108602048006840F44040E2
:100780001E4908601C48083000681B490831086091
:100790000846006840F4004008600846006840F4DD
:1007A000A05008601648091F0860081F006840F044
:1007B0008070091F086000BF0F48006800F00070DB
:1007C0000028F9D040F205700E4908600A48083048
:1007D000006820F0030008490831086008460068F6
:1007E00040F00200086000BF03480830006800F0D5
:1007F0000C000828F8D10CBD003802400070004001
:1008000019544007003C024002480068401C01495E
:10081000086070470000002010B51548006840F4DB
:100820007000134908601348006840F00100114946
:10083000086000200F49083108600E4800680E4922
:1008400008400C4908600D48091D0860081F006831
:1008500020F48020091F0860002006490C31086040
:10086000FFF75CFF4FF0006001498039086010BD60
:1008700088ED00E000380240FFFFF6FE1030002453
:1008800010B50121880700F08EF840B101218807DA
:1008900000F07AF84FF480510148FFF797FE10BD41
:1008A000000C024010B50121354800F07CF800280A
:1008B00064D00121324800F067F8FFF7F7FE0446E4
:1008C000332C0FDA4FF400512E48FFF77BFE4FF424
:1008D00080412C48FFF776FE4FF400412948FFF78E
:1008E00071FE4AE0322C11DD652C0FDA4FF4005115
:1008F0002448FFF767FE4FF480412248FFF762FE6D
:100900004FF400411F48FFF75DFE36E0642C11DD17
:10091000972C0FDA4FF400511A48FFF755FE4FF4A9
:1009200080411848FFF74EFE4FF400411548FFF78D
:1009300049FE22E0962C11DDC92C0FDA4FF400514C
:100940001048FFF741FE4FF480410E48FFF73CFE90
:100950004FF400410B48FFF735FE0EE04FF4005115
:100960000848FFF731FE4FF480410648FFF72CFEA0
:100970004FF400410348FFF727FE00BF10BD000001
:1009800000080040000C0240CA430282704721B1B7
:10099000028842F00102028004E002884FF6FE73F2
:1009A0001A400280704730B5024600200023002420
:1009B000158A05EA0103958905EA010413B10CB112
:1009C000012000E0002030BD1AB183890B438381F0
:1009D00002E083898B4383817047000000220288F4
:1009E000184B98420ED0184B98420BD0B0F1804F64
:1009F00008D0164B984205D0154B984202D0154BA3
:100A0000984204D14FF68F731A404B881A43124B09
:100A1000984207D0114B984204D04FF6FF431A403A
:100A20000B891A4302804B68C3620B880385054B10
:100A3000984202D0044B984201D18B7A038601235D
:100A40008382704700000140000401400004004020
:100A500000080040000C004000100040001400405E
:100A600092B000F0DFF801210820FFF7EFFD01212F
:100A70000846FFF7FBFD01210420FFF7F7FD0121E8
:100A80000846FFF7E3FD01210802FFF7FFFD012102
:100A90008803FFF7FBFD01208DF844004FF47E40F2
:100AA000109000208DF8460003208DF8450010A915
:100AB0005848FFF73FFD00208DF8440001201090BA
:100AC00000208DF846008DF8470010A95248FFF726
:100AD00031FD03208DF844000220109000208DF895
:100AE00046008DF8470010A94B48FFF723FD002072
:100AF00002904FF48030039002A8FFF7FDFB4FF007
:100B00000070069006A94548FFF71CFC01214348E8
:100B1000FFF7E7FB00210846FFF7E0FD42F2CF00B8
:100B2000ADF834000020ADF8360042F20F700E90A0
:100B30004FF40070ADF83C0032208DF83E000DA956
:100B40004007FFF74BFF01218807FFF720FF012235
:100B500011469007FFF738FF42F2CF00ADF834009E
:100B60000020ADF8360041F287300E904FF400704F
:100B7000ADF83C0032208DF83E000DA92848FFF763
:100B80002DFF01212648FFF702FF012211462448CC
:100B9000FFF71AFF0120009000208DF804000820C4
:100BA0008DF8050001208DF806006846FFF778FCF7
:100BB00006208DF8300000208DF831008DF83200CD
:100BC00001208DF833000CA8FFF704FD1E208DF8DE
:100BD000300001208DF8310000208DF83200012016
:100BE0008DF833000CA8FFF7F5FC1C208DF83000C1
:100BF00000208DF8310001208DF832008DF833008F
:100C00000CA8FFF7E7FC4FF480610248FFF7DCFC1B
:100C100000BFFEE7000C024000000240002001403F
:100C20000008004030B5164800684FF47A72B0FBF7
:100C3000F2F1481EB0F1807F01D301201BE0481E75
:100C40004FF0E022506150170F22002804DB1307F9
:100C50001C0E0C4B1C5406E013071D0E0A4B00F033
:100C60000F04241F1D5500BF00204FF0E0229061AB
:100C700007201061002008B100BFFEE730BD000072
:100C80000400002000E400E018ED00E04FF04070A8
:100C9000E1EE100A70470000B80C000800000020C8
:100CA00018000000C4010008D00C00081800002043
:100CB00060060000E001000800000000007A030A5E
:100CC00000000000000000000102030406070809FC
:0400000508000229C4
:00000001FF
